{
  "contractName": "BountyBoard",
  "abi": [
    {
      "anonymous": false,
      "inputs": [
        {
          "indexed": false,
          "name": "",
          "type": "address"
        }
      ],
      "name": "LogAddress",
      "type": "event"
    },
    {
      "constant": true,
      "inputs": [],
      "name": "getAllBountyAddresses",
      "outputs": [
        {
          "name": "",
          "type": "address[]"
        }
      ],
      "payable": false,
      "stateMutability": "view",
      "type": "function"
    },
    {
      "constant": false,
      "inputs": [
        {
          "name": "posterDeposit",
          "type": "uint256"
        },
        {
          "name": "description",
          "type": "string"
        },
        {
          "name": "voterDeposit",
          "type": "uint256"
        },
        {
          "name": "challengeDuration",
          "type": "uint256"
        },
        {
          "name": "voteDuration",
          "type": "uint256"
        }
      ],
      "name": "createBountyContract",
      "outputs": [
        {
          "name": "",
          "type": "address"
        }
      ],
      "payable": true,
      "stateMutability": "payable",
      "type": "function"
    }
  ],
  "bytecode": "0x608060405234801561001057600080fd5b50611259806100206000396000f30060806040526004361061004b5763ffffffff7c01000000000000000000000000000000000000000000000000000000006000350416634de9ac5e8114610050578063b16f45b7146100b5575b600080fd5b34801561005c57600080fd5b5061006561013c565b60408051602080825283518183015283519192839290830191858101910280838360005b838110156100a1578181015183820152602001610089565b505050509050019250505060405180910390f35b60408051602060046024803582810135601f8101859004850286018501909652858552610113958335953695604494919390910191908190840183828082843750949750508435955050506020830135926040013591506101ab9050565b6040805173ffffffffffffffffffffffffffffffffffffffff9092168252519081900360200190f35b606060018054806020026020016040519081016040528092919081815260200182805480156101a157602002820191906000526020600020905b815473ffffffffffffffffffffffffffffffffffffffff168152600190910190602001808311610176575b5050505050905090565b600033348782888888886101bd610349565b808781526020018673ffffffffffffffffffffffffffffffffffffffff1673ffffffffffffffffffffffffffffffffffffffff16815260200180602001858152602001848152602001838152602001828103825286818151815260200191508051906020019080838360005b83811015610241578181015183820152602001610229565b50505050905090810190601f16801561026e5780820380516001836020036101000a031916815260200191505b509750505050505050506040518091039082f080158015610293573d6000803e3d6000fd5b506000805473ffffffffffffffffffffffffffffffffffffffff92831673ffffffffffffffffffffffffffffffffffffffff19918216178083556001805480820182559084527fb10e2d527612073b26eecdfd717e6a320cf44b4afac2b0732d9fcbe2b7fa0cf6018054909216908416179055546040805191909216815290517fb123f68b8ba02b447d91a6629e121111b7dd6061ff418a60139c8bf00522a28492509081900360200190a15095945050505050565b604051610ed48061035a833901905600608060408190526007805460ff19169055610ed43881900390819083398101604090815281516020830151918301516060840151608085015160a086015193959290920192909190348611156100dc57604080517f08c379a000000000000000000000000000000000000000000000000000000000815260206004820152603c60248201527f496e73756666696369656e742066756e64732c204554482073656e74206d757360448201527f7420626520657175616c20746f20626f756e7479206465706f73697400000000606482015290519081900360840190fd5b60075460ff161561014e57604080517f08c379a000000000000000000000000000000000000000000000000000000000815260206004820152601860248201527f426f756e7479206973206e6f74206d6f6469666961626c650000000000000000604482015290519081900360640190fd5b600186905560008054600160a060020a031916600160a060020a0387161790554260025583516101859060039060208701906101a7565b5060049290925560055560065550506007805460ff1916600117905550610242565b828054600181600116156101000203166002900490600052602060002090601f016020900481019282601f106101e857805160ff1916838001178555610215565b82800160010185558215610215579182015b828111156102155782518255916020019190600101906101fa565b50610221929150610225565b5090565b61023f91905b80821115610221576000815560010161022b565b90565b610c83806102516000396000f3006080604052600436106100985763ffffffff7c010000000000000000000000000000000000000000000000000000000060003504166316023372811461009d57806324600fc3146100da5780634f7b5c8a146100e4578063629958981461013d57806368e1f84e14610155578063763e1c6e1461018857806380567af9146101ce5780639ccbe0ab14610290578063bb4c4dff14610298575b600080fd5b3480156100a957600080fd5b506100b26102fd565b60408051600160a060020a039094168452602084019290925282820152519081900360600190f35b6100e2610329565b005b3480156100f057600080fd5b506040805160206004803580820135601f81018490048402850184019095528484526100e29436949293602493928401919081908401838280828437509497506104ff9650505050505050565b34801561014957600080fd5b506100e26004356105c8565b34801561016157600080fd5b50610176600160a060020a03600435166106bc565b60408051918252519081900360200190f35b34801561019457600080fd5b506101b26bffffffffffffffffffffffff19600435166024356106da565b60408051600160a060020a039092168252519081900360200190f35b3480156101da57600080fd5b506101e36108eb565b6040518087600160a060020a0316600160a060020a0316815260200186815260200180602001858152602001848152602001838152602001828103825286818151815260200191508051906020019080838360005b83811015610250578181015183820152602001610238565b50505050905090810190601f16801561027d5780820380516001836020036101000a031916815260200191505b5097505050505050505060405180910390f35b6100e26109c8565b3480156102a457600080fd5b506102ad610a9c565b60408051602080825283518183015283519192839290830191858101910280838360005b838110156102e95781810151838201526020016102d1565b505050509050019250505060405180910390f35b600c54600160a060020a03166000818152600d6020526040902060018101546002820154909150909192565b600c5460009081908190600160a060020a031633141561038557600c54600154604051600160a060020a039092169181156108fc0291906000818181858888f1935050505015801561037f573d6000803e3d6000fd5b506104fa565b600c54600160a060020a03166000908152600d602052604090206003810154600981905560045460085402600a819055919450908115156103c257fe5b04600b555060009050805b600383015481101561044e57600383018054339190839081106103ec57fe5b600091825260209091200154600160a060020a03161415610446576003830180548290811061041757fe5b6000918252602090912001805473ffffffffffffffffffffffffffffffffffffffff191690556001915061044e565b6001016103cd565b8115156104ca576040805160e560020a62461bcd028152602060048201526024808201527f536f7272792c20796f7520626574206f6e207468652077726f6e6720686f727360448201527f652e2e2e00000000000000000000000000000000000000000000000000000000606482015290519081900360840190fd5b600b54604051339180156108fc02916000818181858888f193505050501580156104f8573d6000803e3d6000fd5b505b505050565b336000908152600d602090815260408220805460018101808355828552938390208551929493610536939190920191860190610bbf565b505042600180830191909155600e8054918201815560008190527fbb7b4a454dc3493923482f07822329ed19e8244eff582cc204f8554c3620c3fd909101805473ffffffffffffffffffffffffffffffffffffffff1916331790555460408051918252517f0af2ef7c5d445bad4a7438566663194badb8cd1a724bd02e9e5344387d94d0af9181900360200190a15050565b336000908152600f602052604081206002810154909110610633576040805160e560020a62461bcd02815260206004820152601a60248201527f4e6f7420656e6f75676820766f74657320617661696c61626c65000000000000604482015290519081900360640190fd5b6002810154600454825491021115610695576040805160e560020a62461bcd02815260206004820152601260248201527f496e73756666696369656e742066756e64730000000000000000000000000000604482015290519081900360640190fd5b60018082018054918201815560009081526020902001919091556002018054600019019055565b600160a060020a03166000908152600d602052604090206002015490565b336000908152600f602090815260408083206c010000000000000000000000008604600160a060020a03168452600d835281842082516bffffffffffffffffffffffff19881681860152603480820188905284518083039091018152605490910193849052805192949193869384938493929182918401908083835b602083106107755780518252601f199092019160209182019101610756565b6001836020036101000a0380198251168184511680821785525050505050509050019150506040518091039020925060009150600090505b600185015481101561080a57600185018054849190839081106107cc57fe5b600091825260209091200154141561080257600185018054829081106107ee57fe5b60009182526020822001556001915061080a565b6001016107ad565b811515610887576040805160e560020a62461bcd02815260206004820152603860248201527f5375626d697474656420656e74727920646f6573206e6f74206d61746368206160448201527f6e792073746f72656420636f6d6d6974206861736865732e0000000000000000606482015290519081900360840190fd5b6002840180546001908101909155600385018054918201815560009081526020902001805473ffffffffffffffffffffffffffffffffffffffff1916331790556108df6c010000000000000000000000008904610aff565b98975050505050505050565b600080606060008060008060009054906101000a9004600160a060020a03166001546003600454600554600654838054600181600116156101000203166002900480601f0160208091040260200160405190810160405280929190818152602001828054600181600116156101000203166002900480156109ad5780601f10610982576101008083540402835291602001916109ad565b820191906000526020600020905b81548152906001019060200180831161099057829003601f168201915b50505050509350955095509550955095509550909192939495565b600454600090341015610a25576040805160e560020a62461bcd02815260206004820152601260248201527f496e73756666696369656e742066756e64730000000000000000000000000000604482015290519081900360640190fd5b50336000818152600f6020526040812080543401815560020180546001908101909155601080549182018155918290527f1b6847dc741a1b0cd08d278845f9d819d87b734759afb55fe2de5cb82a9ae67201805473ffffffffffffffffffffffffffffffffffffffff191690921790915554600855565b6060600e805480602002602001604051908101604052809291908181526020018280548015610af457602002820191906000526020600020905b8154600160a060020a03168152600190910190602001808311610ad6575b505050505090505b90565b600160a060020a038082166000908152600d6020526040808220600c5490931682528120600280820154908401549293921115610b6357600c805473ffffffffffffffffffffffffffffffffffffffff1916600160a060020a038616179055610bab565b806002015482600201541415610bab576001808201549083015411610bab57600c805473ffffffffffffffffffffffffffffffffffffffff1916600160a060020a0386161790555b5050600c54600160a060020a031692915050565b828054600181600116156101000203166002900490600052602060002090601f016020900481019282601f10610c0057805160ff1916838001178555610c2d565b82800160010185558215610c2d579182015b82811115610c2d578251825591602001919060010190610c12565b50610c39929150610c3d565b5090565b610afc91905b80821115610c395760008155600101610c435600a165627a7a723058205b1fb29d1f0a750b02f9ce85e22df1e87e610db4fda370d55ddc18036fd842ab0029a165627a7a7230582007d1268716564078a2cd1f4ecc5676b6613c9a384c4036ed697caaaa9ac659460029",
  "source": "pragma solidity ^0.4.18;\n\nimport \"./Bounty.sol\";\n\ncontract BountyBoard {\n\n    Bounty bountyContract;\n \n    address[] bountyContractAddresses;\n    mapping(address => Bounty) bountyContracts; \n \n    event LogAddress(address);\n\n\n// =================\n// GENERAL FUNCTIONS\n// =================\n\n\n\n    function getAllBountyAddresses() \n    public \n    view \n    returns(address[]) \n    {\n        return bountyContractAddresses;\n    }\n\n\n\n// ==================\n// CONTRACT INTERFACE\n// ==================\n\n\n\n    function createBountyContract(\n        uint posterDeposit, \n        string description, \n        uint voterDeposit, \n        uint challengeDuration, \n        uint voteDuration\n        ) \n    public \n    payable\n    returns(address)\n    {        \n        address owner = msg.sender;\n\n        bountyContract = (new Bounty).value(msg.value)(\n        posterDeposit,\n        owner, \n        description, \n        voterDeposit, \n        challengeDuration, \n        voteDuration\n        );\n\n        bountyContractAddresses.push(bountyContract);\n        emit LogAddress(bountyContract);\n    }\n}",
  "sourcePath": "/home/corvo/ScottWorks/Blockchain/DApps/XBounty/contracts/BountyBoard.sol",
  "compiler": {
    "name": "solc",
    "version": "0.4.24+commit.e67f0147.Emscripten.clang"
  },
  "schemaVersion": "2.0.1",
  "updatedAt": "2018-08-10T18:51:50.183Z"
}